:020000040800F2
:10000000F80A002001010008C71A0008C5180008F6
:10001000C51A000891010008A12100080000000095
:10002000000000000000000000000000791E000831
:10003000CB01000800000000C91A0008F11E0008EA
:100040001B0100081B0100081B0100081D1C000803
:100050001B0100081B0100081B0100081B01000810
:100060001B0100081B0100081B0100081B01000800
:100070001B010008950100081B0100081B01000876
:100080001B0100081B0100081B0100081B010008E0
:100090001B0100081B0100081B0100081B010008D0
:1000A0001B0100081B0100081B0100081B010008C0
:1000B0001B0100081B0100081B0100081B010008B0
:1000C0001B0100081B0100081B0100081B010008A0
:1000D0001B0100081B010008892100089521000868
:1000E0001B010008CD1A00081B010008DFF80CD026
:1000F00000F03CF800480047E1210008F80A002021
:100100000648804706480047FEE7FEE7FEE7FEE7B1
:10011000FEE7FEE7FEE7FEE7FEE7FEE7751F0008E5
:10012000ED00000840EA01039B0703D009E008C97D
:10013000121F08C0042AFAD203E011F8013B00F8AC
:10014000013B521EF9D27047D2B201E000F8012BF8
:10015000491EFBD270470022F6E710B513460A4647
:1001600004461946FFF7F0FF204610BD064C074D28
:1001700006E0E06840F0010394E807009847103477
:10018000AC42F6D3FFF7B6FF7422000894220008B1
:10019000FEE70000014800F0A3B800008000002046
:1001A00030B590F840500124AC40C56B6C600468D9
:1001B00063604368102B036803D099600068C260D5
:1001C00030BD9A600068C16030BD704772B6FEE70E
:1001D0001CB5044600226946084800F0C2FE002211
:1001E00001A9064800F096FE9DF8000020709DF8D9
:1001F000010060709DF80200A0701CBD140000207A
:1002000010B590F821100022022905D00421816345
:1002100080F82020012010BD01680B6823F00E0338
:100220000B6001680B6823F001030B6090F840300D
:10023000C46B012101FA03F3636080F8211080F898
:100240002020104610BD000010B590F821100024A9
:10025000022903D00421816301243DE001680A687A
:1002600022F00E020A6001680A6822F001020A60A8
:100270001A4A0168914201D1012121E0174A143242
:10028000914201D110211BE0144A2832914201D140
:10029000891515E0114A3C32914201D189140FE0D1
:1002A0000E4A5032914202D14FF4803108E00B4A9D
:1002B0006432914202D14FF4801101E04FF080711D
:1002C000064A083A5160012180F82110002180F887
:1002D0002010416B01B18847204610BD0800024044
:1002E0002DE9F05FC16B0C6801680B68D0F840C065
:1002F000042202FA0CF2494DDFF824A1494E4A4F7C
:10030000DFF828B1DFF828E122422CD05A072AD59D
:100310000A68920603D40A6822F004020A6001689F
:10032000A94201D1042219E0514501D1402215E032
:10033000B14202D14FF4806210E0B94202D14FF4D1
:1003400080420BE0594502D14FF4802206E071450E
:1003500002D14FF4800201E04FF080622F4908394A
:100360004A60C16A3BE04FF0020808FA0CF818EA4C
:10037000040F4FF000094FF0010235D05FEA837897
:1003800032D50B689B0605D40B6823F00A030B607B
:1003900080F821200168A94201D1022219E05145CB
:1003A00001D1202215E0B14202D14FF4007210E0D9
:1003B000B94202D14FF400520BE0594502D14FF43B
:1003C000003206E0714502D14FF4001201E04FF017
:1003D0000072124908394A6080F82090816A002929
:1003E0001AD0BDE8F05F0847082505FA0CF525424C
:1003F00012D01B0710D50B6823F00E030B6090F88A
:100400004010C36B02FA01F15960826380F8212029
:1004100080F82090016BE2E7BDE8F09F0800024001
:100420001C000240300002404400024058000240DC
:100430006C00024030B528B308C81349142219448F
:10044000B1FBF2F18900C163104981630221417758
:100450001A6843F6F0718A43D0E900142143D0E9C9
:1004600002452C43214304692143446921438469A3
:100470002143114319600021416301224277017732
:10048000084630BD012030BDF8FFFDBF000002402E
:1004900070B5044690F82000002501280CD00120FA
:1004A00084F8200094F821600020012E06D084F802
:1004B00020000225284670BD022070BD022684F867
:1004C0002160A0632068066826F0010606602046C9
:1004D000FFF766FEE06A00282068016802D041F05C
:1004E0000E0106E021F0040101602068016841F07E
:1004F0000A0101602068016841F001010160D9E74B
:100500002DE9F84FDFF8B8910024A9F1040B234638
:100510000F2709F1040AABF1040EC9E00125A5403B
:100520002A40AA427DD1674ED1F804C0ACEB060840
:10053000B44532D014DCBCF1030F3AD009DCBCF175
:10054000000F2AD0BCF1010F1CD0BCF1020F31D139
:100550001DE0BCF1110F17D0BCF1120F2AD119E028
:10056000B8F5881F19D006DCB8F5803F15D0B8F56E
:10057000801F1FD111E0B8F5001F0ED0B8F5041F81
:1005800018D10AE0CB6815E0CB681B1D12E0CB68E0
:1005900008330FE0CB680C330CE08B682BB1012BD8
:1005A0004FF0080303D0456104E0042302E0056135
:1005B00000E00023FF2A01D8064601E000F104060E
:1005C0004FEA840501D9A5F12005D6F8008007FA85
:1005D00005FC28EA0C0803FA05F548EA0508C6F800
:1005E00000804D68ED0062D5374DAE6946F00106DA
:1005F000AE61AD6924F0030605F001050095334DA9
:1006000006EB050CDCF80850A607360F07FA06F8CB
:1006100025EA0805DFF8B880404503D14FF000080F
:1006200017E044E0DFF8AC80404502D14FF001080C
:100630000FE0DFF8A480404502D14FF0020808E047
:10064000DFF89880404502D14FF0030801E04FF0F9
:10065000040808FA06F848EA0508CCF808804D684E
:10066000D9F80060ED024D4601D5164300E09643EF
:100670002E604D68DAF80060AD02554601D516438C
:1006800000E096432E604D68DBF80060AD035D46E8
:1006900001D5164300E096432E604D68DEF80060F9
:1006A000ED03754601D5164300E096432E60641CA9
:1006B0000D682A46E5407FF431AFBDE8F88F0000B1
:1006C0000804014000001110001002400000014029
:1006D00000080140000C01400010014000140140DE
:1006E0000AB1016170470904FBE700000148806816
:1006F0007047000000000020024881680278114421
:100700008160704700000020074810B5016841F083
:1007100010010160032000F075F80F2000F006F8CA
:1007200000F024F8002010BD0020024070B50D4DEF
:1007300004464FF47A712878B1FBF0F00A49096851
:10074000B1FBF0F000F0D0FE48B9102C07D2002227
:100750002146501E00F036F800206C6070BD01206C
:1007600070BD0000000000200C0000200C4808B5FF
:10077000816941F001018161816901F0010100910C
:10078000C16941F08051C161C06900F080500090A2
:100790000448416821F0E06141F00071416008BD0A
:1007A0000010024000000140002809DB00F01F0299
:1007B000012191404009800000F1E020C0F80011C3
:1007C00070470000F0B40E4B1B680C46C3F30223C5
:1007D000C3F10705042D00D90425191D072901D2ED
:1007E000002300E0DB1E012606FA05F1491E214028
:1007F00099409E40761E16403143F0BC01F0D1BCBA
:100800000CED00E0064900F0070208684FF6FF0310
:10081000184040EA0220034A104308607047000075
:100820000CED00E00000FA05014901200862704764
:1008300000000E4210B501460020234C012922D0B1
:10084000022939D010291DD161682268D20119D539
:100850001E48C1F38342C903805C0AD561681B4A04
:10086000C1F34041921E515C194AB2FBF1F1484379
:1008700001E0184948436168490203D4400003215C
:10088000B0FBF1F010BD226AC2F30121012903D1AE
:10089000920701D5C80310BD022905D1626A9207EB
:1008A00002D549F6404010BD0329FCD121688903D7
:1008B000F9D54FF2244010BD00F02AF96168C1F368
:1008C0008131491C4900DBE7001002404C2200083E
:1008D00000127A0000093D002DE9F8430546007832
:1008E000354CC00754D0E0690026C00008D4E06948
:1008F00040F08050E061E069012600F080500090F7
:100900002E480168C90512D40168804641F48071FF
:100910000160FFF7EBFE074605E000BFFFF7E6FECC
:10092000C01B642823D8D8F80000C005F6D5206A7B
:1009300010F4407021D0A98801F4407181421CD08C
:10094000206A1F49012220F440700A6000220A60D8
:100950002062C00711D0FFF7C9FE074641F2883870
:1009600008E000BFFFF7C2FEC11B414502D90320CA
:10097000BDE8F883206A8007F4D5206A696820F40E
:100980004070084320621EB1E06920F08050E061B1
:100990002878800705D56068A96820F4404008439E
:1009A00060602878C00605D56068E96820F480009A
:1009B000084360600020DBE7001002400070004048
:1009C000400442422DE9F0470F46050061D0434EF6
:1009D000306800F00700B84209D2306820F0070004
:1009E00038433060306800F00700B84251D12868C1
:1009F0003B4C810712D5400703D5606840F4E060A6
:100A000060602878000703D5606840F4605060603B
:100A10006068A96820F0F000084360602878C0078B
:100A200028D06868012810D02168022810D08907D2
:100A300000292EDA616821F0030101436160FFF7AC
:100A400055FE804641F288390DE021688903EFE7C1
:100A50008901EDE7FFF74AFEA0EB0801494502D9FD
:100A60000320BDE8F0876068696800F00C00B0EB17
:100A7000810FEFD1306800F00700B8420BD9306821
:100A800020F0070038433060306800F00700B842BB
:100A900001D00120E5E72878400705D56068E968BE
:100AA00020F4E060084360602878000706D560689D
:100AB000296920F4605040EAC100606000F038F815
:100AC0006168084AC1F30311515CC84006490860D7
:100AD00006480068FFF72AFE0020C2E70020024017
:100AE000001002405C2200080C00002004000020DE
:100AF0000448054900684968044AC1F30221515C71
:100B0000C84070470C000020001002406C22000812
:100B10000448054900684968044AC1F3C221515C90
:100B2000C84070470C000020001002406C220008F2
:100B30000E4A51680E4801F00C03042B11D0082B0B
:100B40000FD10C48C1F38343C903C05C0AD5516877
:100B5000084AC1F34041921E515C054A5043B0FB24
:100B6000F1F070470449484370470000001002400C
:100B700000127A003A22000800093D002DE9F84FE2
:100B8000040070D02078C04DC00749D06868C0F319
:100B90008100012807D06868C0F38100022809D1CC
:100BA0006868C00306D52868800339D560680028C6
:100BB000E7D035E06068B0F5803F0BD010B1B0F5FC
:100BC000A02F11D0286820F480302860286820F4F5
:100BD000802002E0286840F480302860606890B18E
:100BE000FFF784FD06460AE0286840F4802028606C
:100BF000F0E700BFFFF77AFD801B642873D82868F0
:100C00008003F7D50CE0FFF771FD064605E000BF55
:100C1000FFF76CFD801B6428F0D828688003F7D4A8
:100C200020789A4E80074FF001094FF0000839D51F
:100C3000686810F00C0F07D06868C0F381000228C4
:100C400009D16868C00306D42868800714D52069D4
:100C5000012808D110E02069B0B1C6F80090FFF774
:100C600045FD074605E00AE1FFF740FDC01B0228ED
:100C7000C4D828688007F7D52868616920F0F80093
:100C800040EAC10028600DE0C6F80080FFF72EFDA5
:100C9000074604E0FFF72AFDC01B022823D8286876
:100CA0008007F7D4207800072CD57948A169D9B1FD
:100CB000C0F80090FFF71AFD074604E0FFF716FDA5
:100CC000C01B02280FD8686A8007F7D571484FF417
:100CD000FA510068B0FBF1F0009000BF0098411E8F
:100CE0000091FAD20EE080E0C0F80080FFF7FEFC31
:100CF000074604E0FFF7FAFCC01B022875D8686AB3
:100D00008007F7D42078400760D5E8690027C00045
:100D100008D4E86940F08050E861E869012700F0F4
:100D2000805000905C480168C90513D4016883466F
:100D300041F480710160FFF7D9FC824606E000BFF4
:100D4000FFF7D4FCA0EB0A0064284ED8DBF80000C3
:100D5000C005F5D5E06801280AD008B1052813D0F0
:100D6000286A20F001002862286A20F0040002E0CE
:100D7000286A40F001002862E06841F2883B98B19F
:100D8000FFF7B4FC82460BE0286A40F004002862BA
:100D9000EEE700BFFFF7AAFCA0EB0A0159455AD8BD
:100DA000286A8007F6D50CE0FFF7A0FC824605E034
:100DB000FFF79CFCA0EB0A0159454CD8286A800734
:100DC000F6D41FB1E86920F08050E861E06988B38B
:100DD0006968C1F38101022944D00228C6F8608005
:100DE00004D0FFF783FC044638E034E0FFF77EFCD4
:100DF000074604E0FFF77AFCC01B02282BD82868BE
:100E00008001F7D4206AB0F5803F05D16868A168F9
:100E100020F4003008436860D4E908010843696899
:100E200021F4741108436860C6F86090FFF75EFC17
:100E3000044606E025E000BFFFF758FC001B02282F
:100E400009D828688001F7D51BE000BFFFF74EFCEA
:100E5000001B022802D90320BDE8F88F2868800112
:100E6000F4D40EE00128F7D06868226A00F48031DB
:100E7000914204D1616A00F47010884201D00120CF
:100E8000EAE70020E8E700000010024000004242CC
:100E9000800442420C000020007000407047704700
:100EA00010B5044600680168C90717D04168C90732
:100EB00014D040684007204607D5FFF7F0FF2168AF
:100EC0006FF004004860042002E0FFF7E7FF012014
:100ED00060742068416821F00101416010BD7047D5
:100EE00010B504460068016889070AD54068800784
:100EF00007D52046FFF7F3FF2068416821F0020183
:100F0000416003494FF4003008600120607410BD57
:100F100014040140F8B505004FF0000016460C46D9
:100F2000009006D02CB100226946284600F019F83E
:100F300008B10120F8BD287B2070E87BE070697B58
:100F40006170A97BA17056B100F0CFFDE0706078B0
:100F500000F0CBFD6070A07800F0C7FDA07000200D
:100F6000F8BD2DE9F04791460C465FEA00084AD0EB
:100F700084B3D8F800004068400744D4404600F0ED
:100F80005AFE4FF461620546B0FBF2F1B0FBF2F39A
:100F900002FB13503C23B0FBF3F0B5FBF2F660709C
:100FA00002FB1650B0FBF3F203FB1200A0701829ED
:100FB00031D31820B1FBF0F7B1FBF0F200FB1210B7
:100FC0002070404600F030FE411C04D0A84202D9F7
:100FD000461B02E017E04FF0FF36A7EB071000EBCF
:100FE0004000C0EB001005EBC0152946404600F05C
:100FF00071FE40B9701C01D0711900E031464046C5
:1010000000F054FE10B10120BDE8F087394640469B
:1010100000F076FD00E02170B9F1000F0BD02078D0
:1010200000F063FD2070607800F05FFD6070A078D4
:1010300000F05BFDA0700020E6E7000070B5040042
:1010400003D0607C002610B105E0012070BD26743D
:10105000204600F03DF802206074204600F01CF9A4
:10106000042550BB204600F0A2FD30BB206841683B
:1010700021F007014160A06820B11448016821F007
:10108000010101601148001F0168A26821F460712C
:10109000114301606068411C04D10120FFF7CAFBC5
:1010A00058B1401E2268C0F303419160216880B2AC
:1010B000C860204600F096FD08B16574C5E7E67388
:1010C00001206073A0736074002070BD306C00401C
:1010D00008B50068114988421FD1FFF7A5FB1048E9
:1010E000C16941F00061C161C0690E4900F0006052
:1010F000009001200860002211460320FFF762FBE8
:101100000320FFF751FB002211462920FFF75AFB6D
:10111000BDE808402920FFF747BB08BD0028004074
:10112000001002403C0442422DE9F0410D4604000B
:101130003BD0C5B3207C01283AD04FF0010884F899
:10114000108002206074E87872B300F0C5FCE07390
:10115000687800F0C1FC6073A87800F0BDFCA07353
:10116000C2B2617BE07B00F076FD207328702046E0
:1011700000F061FD4FF46161B0FBF1F10025182929
:101180002DD91822B1FBF2F1A1EB011101EB4101C4
:10119000C1EB011100EBC1163146204600F09AFD6B
:1011A0000427C8B90BE000E004E00120BDE8F081AD
:1011B0000220FBE7E07368786073A878CFE72046E9
:1011C00000F032FD411C0AD0B04208D20649014469
:1011D000204600F06BFD10B167742574E5E784F8D4
:1011E000118025740020E1E7805101002DE9F041D4
:1011F0000D46040024D01DB3207C012823D04FF0DD
:10120000010884F81080022060742878EAB100F0A8
:1012100063FC4FF4616100FB01F6687800F05CFC50
:10122000C0EB001006EB8006A87800F055FC3518DE
:101230002946204600F04EFD0026042710BB0FE093
:101240000120BDE8F0810220FBE74FF461614843D3
:101250006978C1EB011100EB8100A9784518E7E737
:101260002068416821F005014160204600F0DCFC67
:10127000411C0AD0A84208D206490144204600F089
:1012800015FD10B167742674DAE784F811802674AE
:101290000020D6E78051010070B504000AD0206814
:1012A000416821F008014160FFF720FA05464FF43C
:1012B0007A7608E0012070BDFFF718FA401BB042B3
:1012C00001D9032070BD206840680007F4D50020D4
:1012D00070BD704770B5040009D0606A002540B148
:1012E00025616561A56294F8510040B10CE00120D0
:1012F00070BD6068B0F5827FF4D0E561F2E784F8F4
:101300005050204600F040F8022084F85100206838
:10131000016821F040010160A088218900F48270F9
:1013200001F404410843A18901F400610843217CD0
:1013300001F002010843217D01F001010843218BE6
:1013400001F400710843217F01F03801084394F84B
:10135000201001F080010843218D01F40051084361
:1013600021680860A069042101EA104021684860F2
:101370002068C16921F40061C1616565012084F8BC
:101380005100002070BD000070B586B000250646F3
:10139000009501950295039500681A4988422ED15F
:1013A0001949886940F480508861886900F4805048
:1013B0000490886940F0040088618869694600F0FB
:1013C00004000490A02000900220019003200390CC
:1013D0000E48FFF795F80F4C0D4820601020C4E927
:1013E00001058020C4E903056561A5612046E5612A
:1013F000FFF720F808B1FEF7E9FEB464666206B0B4
:1014000070BD0000003001400010024000080140A3
:10141000300002408000002070B5044690F8510072
:1014200001281CD1C9B1C2B194F85000012816D0CE
:10143000012084F85000032084F8510000256565E0
:101440002163A286E286A56365642564A587E58796
:10145000A068B0F5004F04D00DE0012070BD02205F
:1014600070BD2068016821F04001016020680168BA
:1014700041F480410160A16C1748C862A16C174813
:101480008862A16C16480863A06C4563E38E2268ED
:10149000216B0C32A06CFEF7FBFF30B1606D40F0A9
:1014A0001000606584F85050D7E72068016849064D
:1014B00003D4016841F04001016084F85050206875
:1014C000416841F0200141602068416841F002011B
:1014D0004160002070BD00001F1D0008291D00088C
:1014E000FD1C00087047704710B5401EB0F1807FAA
:1014F00001D3012010BD4FF0E02460610F2160177F
:1015000000F04FFE0020A06107202061002010BDE8
:1015100070477047F8B5016804460868CA684B69A7
:1015200010F00F0F4FF0000559D003F0010602F440
:101530009077374365D0C10705D0D10503D5616CDD
:1015400041F001016164410705D5D90703D0616C01
:1015500041F002016164810705D5D90703D0616CB0
:1015600041F004016164010707D502F02001314315
:1015700003D0616C41F008016164616C00293AD0CC
:10158000800604D5900602D5204600F040FD206874
:101590004069616CC0F38010090700D460B3204635
:1015A00000F00EFD20684069400621D52068143007
:1015B00050E8001F21F0400140E80012002AF5D158
:1015C000E06BA8B16D494163E06BFEF73DFE00287A
:1015D00011D0E06B416B01B0BDE8F04008478306D5
:1015E0000FD593060DD52046BDE8F84000F00FBD9D
:1015F0002046FFF78EFFF8BD2046FFF78AFF65649F
:10160000F8BD266B2023012E7CD1C6067AD5D606DE
:1016100078D508684868009048694FF0020640068F
:1016200040D5E16B086840680004000CE8D0A28D4A
:101630008242E5D9E085886920282DD020680C30C9
:1016400050E8001F21F4807140E80012002AF5D113
:101650002068143050E8001F21F0010140E800121A
:10166000002AF5D12068143050E8001F21F0400115
:1016700040E80012002AF5D184F842302563206842
:101680000C3050E8001F21F0100140E80012002A41
:10169000F5D1E06BFEF7B4FD6663A08DE18D401AD5
:1016A00081B22AE0A08DE18D401A81B2E08D002840
:1016B000A6D00029A4D022680C3252E8000F20F4F2
:1016C000907042E80007002FF5D12068143050E8F0
:1016D000002F22F0010240E80027002FF5D184F806
:1016E0004230256320680C3050E8002F22F01002B1
:1016F00040E80023002BF5D166632046FFF708FF82
:10170000F8BDFFE705062BD5150629D594F841004D
:101710002128F5D1A068B0F5805F01D12069B0B172
:10172000206A411C2162216800784860E08C401EDC
:101730000004000CE084E3D12068C16821F080013E
:10174000C1602068C16841F04001C160D8E7206AEB
:101750000088C0F308004860206A801C2062E5E72A
:101760004006CDD55006CBD5CA68204622F04002AF
:10177000CA6084F8413000F0A4F8C1E7B11F000846
:1017800070B5040004D094F84100002510B106E0C3
:10179000012070BD84F84050204600F023F824203A
:1017A00084F841002068C16821F40051C1602046DE
:1017B00000F08EFC2068016921F4904101612068ED
:1017C000416921F02A0141612068C16841F400515A
:1017D000C1606564202084F8410084F8420065639C
:1017E000002070BD30B585B00024009401940294AF
:1017F00003942E4D03682E4802210322AB4227D1C9
:10180000C36943F40033C361C36903F40033049331
:10181000836943F0040383618069264D00F004006E
:1018200004900420CDE90001039269462846FEF7A2
:1018300067FE0820CDE90004694628460294FEF7B9
:101840005FFE002211462620FEF7BCFF262029E07D
:10185000194DAB4228D1C36943F48023C361C369E6
:1018600003F480230493836943F008038361806950
:10187000039200F0080004902815CDE900010F4DF7
:1018800069462846FEF73CFEE814CDE900046946A7
:1018900028460294FEF734FE002211462720FEF768
:1018A00091FF2720FEF780FF05B030BD00440040C7
:1018B000001002400008014000480040000C0140B8
:1018C00070477047FEE70000094808B5416941F0DC
:1018D000010141614069002200F0010000901146C1
:1018E0000D20FEF76FFFBDE808400D20FEF75CBF3E
:1018F000001002402DE9F04186B0002524480095F3
:10190000019502950395816941F01001816181691A
:1019100001F010010491816941F020018161816928
:1019200001F020010491816941F004018161816924
:1019300001F004010491816941F00801816180692D
:10194000144F00F008004FF4005404900022214688
:101950003846FEF7C5FEDFF84080E610002231462B
:101960004046FEF7BDFE00940124CDE90145022565
:10197000694638460395FEF7C3FDCDE90064694624
:101980004046CDE90245FEF7BBFD06B0BDE8F0815B
:101990000010024000100140000801401CB5002466
:1019A00019480194174900940160611E41604FF489
:1019B00080718160FFF742FB08B1FEF707FC102041
:1019C0008DF804008DF805008DF80600012201A9AC
:1019D0000D48FFF70BFC08B1FEF7F8FB01208DF86E
:1019E00000008DF801008DF8020002468DF80340DA
:1019F00069460548FFF798FB002801D0FEF7E6FB93
:101A00001CBD00000028004014000020104810B544
:101A10000E4901604FF48271416000210222816011
:101A2000C0E9031201224261520282611822C0E918
:101A30000721416281620A21C162FFF74BFC002845
:101A400003D0BDE81040FEF7C1BB10BD003001401F
:101A5000280000200C4810B50A4901604FF4E1311C
:101A60004160002181600C22C160C0E904128161E3
:101A7000C161FFF785FE002803D0BDE81040FEF7E6
:101A8000A5BB10BD00440040C40000200C4810B5A8
:101A90000A4901604FF4E1314160002181600C226C
:101AA000C160C0E904128161C161FFF769FE0028CD
:101AB00003D0BDE81040FEF789BB10BD00480040D0
:101AC0000C010020FEE7FEE7704700000148FFF729
:101AD00007BA000014000020010901EB810100F0A9
:101AE0000F0000EB4100C0B27047002102E00A384D
:101AF000C0B2491C0A28FAD2090740EA11607047AF
:101B00002DE9F04104460025C07B627BA37B42E0C7
:101B1000012A16D0032A14D0052A12D0072A10D081
:101B2000082A0ED00A2A0CD00C2A0AD0042A10D077
:101B3000062A0ED0092A0CD00B2A0AD0022A0DD070
:101B400028E01F2B0CD30C2A05D101221346401C80
:101B500020E01E2B04D30123521C1BE01C2B02D2BD
:101B600003F1010316E011D183B29E0710D1642660
:101B7000B3FBF6F706FB173636B94FF4C876B3FB5E
:101B8000F6F706FB17331BB91D2303E01D2B01D10C
:101B9000032201236D1C8D42BAD3D1B2E07361736D
:101BA000DAB2A27300F057F82073BDE8F08170B587
:101BB0000446FEF79BFD05464FF47A7606E0FEF7F5
:101BC00095FD401BB04201D9032070BD20684068DC
:101BD0008006F4D52068416841F010014160002082
:101BE00070BD000070B504460068416821F0100126
:101BF0004160FEF77BFD05464FF47A7607E000BFB3
:101C0000FEF774FD401BB04201D9032070BD20686F
:101C100040688006F4D5002070BD00000148FFF741
:101C20003FB90000140000200168086A496A89B2BF
:101C300041EA00407047006881698AB2C1698BB28D
:101C4000816989B28A4203D0C06961F31F4070473D
:101C500043EA02407047F0B56424C1EBC103092791
:101C6000A500072603EB01130329B3FBF7F100F5E9
:101C7000FA60114401440AD2401EB0FBF4F201EBB9
:101C80009001B0FBF5F0891A0844001D08E0B0FB94
:101C9000F4F201EB9001B0FBF5F0891A0844801CC6
:101CA000B0FBF6F106FB1100C0B2F0BD70B50D46F9
:101CB00006460024FFF77BFF48B93168280C08620C
:101CC0003168A8B248623046FFF78CFF00B10124AA
:101CD000204670BD70B50D4606460024FFF767FF2D
:101CE00048B93168280C88613168A8B2C8613046AB
:101CF000FFF778FF00B10124204670BD10B5406A9F
:101D000001684A6822F003024A60416D41F0100107
:101D10004165012180F85110FFF7DBFA10BD10B5C5
:101D2000406AFFF7E0FB10BD38B50546446AFEF790
:101D3000DDFC024628680068800623D420684168DC
:101D400021F0200141602068416821F002014160DA
:101D50006421204600F01AF818B1606D40F02000B0
:101D60006065A068002118B92068C268806800908A
:101D7000E186012084F85100606D18B12046FFF71C
:101D8000A8FA38BD2046FFF7ADFB38BDF8B51546BB
:101D90000E460B46009204460122022100F010F884
:101DA00040B93346002280212046009500F008F813
:101DB000002804D0606D40F0200060650320F8BD6D
:101DC0002DE9F8431E46914688460446089DFEF7D5
:101DD0008DFC401B351AFEF789FC07462548006834
:101DE000C0F3CB30684338E0701C37D0FEF77EFC80
:101DF000C01BA84203D215B1009860B32CE0206844
:101E0000416821F0E00141606068B0F5827F0BD14C
:101E1000A068B0F5004F02D0B0F5806F04D1206803
:101E2000016821F040010160A06AB0F5005F09D1AE
:101E30002068016821F4005101602068016841F4C4
:101E400000510160012084F85100002084F8500006
:101E50000320BDE8F8830025401E009020688168BB
:101E600038EA010004D000214945BDD10020F0E747
:101E70000121F9E70C0000207047000030B587B061
:101E80000D46044618216846FEF765F90020C0217A
:101E90006A461154401C1828FBDB0023F02002E0A6
:101EA000D0545B1CDBB229789942F9D8002103E0B9
:101EB0005318491C1872C9B26B788B42F8D80021AC
:101EC00003E05318491C1874C9B2AB788B42F8D898
:101ED000064B002104EB440001EBC004555C491C97
:101EE000C9B2E5541829F7D307B030BD540100201A
:101EF000FEF702BC70B594B028216846FEF72BF9B6
:101F000014210AA8FEF727F9002501240F95119541
:101F1000052012950090CDE9025410954FF48030C1
:101F2000019002260494CDE907604FF4E010099077
:101F30006846FEF723FE08B172B6FEE70F20CDE932
:101F40000A064FF48060CDE90C5002210AA80E95D4
:101F5000FEF738FD08B172B6FEE74FF48070CDE9A8
:101F60000F400FA8FEF7B8FC002801D072B6FEE7BC
:101F700014B070BD7047000010B5ADF5BE6D4FF4E4
:101F8000BE6421466846FEF7E6F84FF4B46206499F
:101F90006846FEF7C7F8224669460448FFF73CFA50
:101FA0000DF5BE6D10BD000054010020280000207A
:101FB00010B5406A0021C185C184FFF7AAFA10BD9F
:101FC00001680C3151E8002F22F4907241E800239F
:101FD000002BF5D10168143151E8002F22F00102E5
:101FE00041E80023002BF5D1016B012909D10168DB
:101FF0000C3151E8002F22F0100241E80023002BA1
:10200000F5D1202180F8421000210163704708B506
:1020100090F84210222901D0022008BD82684FF4B6
:1020200080539A4201D1016921B1816A9A421BD041
:102030004AB10AE00268816A5268C2F308020A8063
:10204000816A891C08E0026972B10268526802F074
:102050007F020A70816A491C8162C18D491E090490
:10206000090CC18503D01BE002685268F1E70168E2
:10207000CA6822F02002CA600168CA6822F480722D
:10208000CA6001684A6922F001024A61202180F891
:10209000421000214163026B012A03D0FFF710FCBC
:1020A000002008BD016301680C3151E8002F22F0C7
:1020B000100241E80023002BF5D101680A68D2061E
:1020C00002D50A6849680091818DFFF721FAE7E798
:1020D00070B5044600680169E26821F4405111437B
:1020E00001612169A0680843616908432168CA68E1
:1020F00041F20C639A430243CA6020684169A269B5
:1021000021F44071114341611E492068884202D187
:10211000FEF7FEFC01E0FEF7EBFC00EBC00101EB7B
:102120000012606864218000B2FBF0F3B3FBF1F3AE
:102130006FF018067343B2FBF0F5B2FBF0F605EB57
:102140008305322303EB0515B5FBF1F5B6FBF1F67C
:1021500005F0F00505EB0615B2FBF0F6B2FBF0F06A
:10216000B0FBF1F06FF01802504306EB800003EB78
:102170000010B0FBF1F0216800F00F0028448860E7
:1021800070BD0000003801400148FFF7C3B90000EE
:10219000C40000200148FFF7BDB900000C01002079
:1021A000FEE70907090E002804DB00F1E02080F8B3
:1021B0000014704700F00F0000F1E02080F8141DBB
:1021C000704702E008C8121F08C1002AFAD1704700
:1021D0007047002001E001C1121F002AFBD17047A7
:1021E00008B56846FDF7F4FFFEF78EFAFFF782FEAA
:1021F000FFF780FBFFF768FBFFF708FCFFF72AFCFF
:10220000FFF7CCFBFFF742FC00F00AF8034905207A
:10221000FFF734FEFFF7B0FEFEE7000010000020DD
:1022200000200449C0224FF4B4630A54401C984271
:10223000FBDB70475401002001020203040506077E
:1022400008090A0B0C0D0E0F101001020203040501
:10225000060708090A0B0C0D0E0F101000000000F5
:102260000000000001020304060708090000000046
:102270000102030494220008000000201400000062
:10228000C2210008A822000814000020E40A00006F
:10229000D221000801000000100000000000000032
:0822A00000127A0000080000A2
:04000005080000ED02
:00000001FF
